{
  "contractName": "ProofOfExistencal",
  "abi": [
    {
      "inputs": [],
      "name": "proof",
      "outputs": [
        {
          "internalType": "bytes32",
          "name": "",
          "type": "bytes32"
        }
      ],
      "stateMutability": "view",
      "type": "function"
    },
    {
      "inputs": [
        {
          "internalType": "string",
          "name": "doc",
          "type": "string"
        }
      ],
      "name": "notarize",
      "outputs": [],
      "stateMutability": "nonpayable",
      "type": "function"
    },
    {
      "inputs": [
        {
          "internalType": "string",
          "name": "doc",
          "type": "string"
        }
      ],
      "name": "proofFor",
      "outputs": [
        {
          "internalType": "bytes32",
          "name": "",
          "type": "bytes32"
        }
      ],
      "stateMutability": "pure",
      "type": "function"
    }
  ],
  "bytecode": "0x608060405234801561001057600080fd5b50610436806100206000396000f3fe608060405234801561001057600080fd5b50600436106100415760003560e01c80637183616c14610046578063f6c1acdf14610062578063faf924cf14610092575b600080fd5b610060600480360381019061005b91906101e6565b6100b0565b005b61007c600480360381019061007791906101e6565b6100c2565b60405161008991906102c6565b60405180910390f35b61009a61013a565b6040516100a791906102c6565b60405180910390f35b6100b9816100c2565b60008190555050565b60006002826040516020016100d791906102af565b6040516020818303038152906040526040516100f39190610298565b602060405180830381855afa158015610110573d6000803e3d6000fd5b5050506040513d601f19601f8201168201806040525081019061013391906101bd565b9050919050565b60005481565b600061015361014e84610312565b6102e1565b90508281526020810184848401111561016b57600080fd5b610176848285610378565b509392505050565b60008151905061018d816103e9565b92915050565b600082601f8301126101a457600080fd5b81356101b4848260208601610140565b91505092915050565b6000602082840312156101cf57600080fd5b60006101dd8482850161017e565b91505092915050565b6000602082840312156101f857600080fd5b600082013567ffffffffffffffff81111561021257600080fd5b61021e84828501610193565b91505092915050565b6102308161036e565b82525050565b600061024182610342565b61024b8185610358565b935061025b818560208601610387565b80840191505092915050565b60006102728261034d565b61027c8185610363565b935061028c818560208601610387565b80840191505092915050565b60006102a48284610236565b915081905092915050565b60006102bb8284610267565b915081905092915050565b60006020820190506102db6000830184610227565b92915050565b6000604051905081810181811067ffffffffffffffff82111715610308576103076103ba565b5b8060405250919050565b600067ffffffffffffffff82111561032d5761032c6103ba565b5b601f19601f8301169050602081019050919050565b600081519050919050565b600081519050919050565b600081905092915050565b600081905092915050565b6000819050919050565b82818337600083830152505050565b60005b838110156103a557808201518184015260208101905061038a565b838111156103b4576000848401525b50505050565b7f4e487b7100000000000000000000000000000000000000000000000000000000600052604160045260246000fd5b6103f28161036e565b81146103fd57600080fd5b5056fea26469706673582212200f769cb78e02fcd80f00432c847fef336ee3b38c03c22cf02f928d69d657b58764736f6c63430008000033",
  "immutableReferences": {},
  "source": "// SPDX-License-Identifier: MIT\r\npragma solidity ^0.8.0;\r\n\r\ncontract ProofOfExistencal {\r\n    bytes32 public proof;\r\n\r\n    function notarize(string memory doc) public {\r\n        proof = proofFor(doc);\r\n    }\r\n\r\n    function proofFor(string memory doc) public pure returns (bytes32) {\r\n        return sha256(abi.encodePacked(doc));\r\n    }\r\n}\r\n",
  "sourcePath": "D:\\New folder\\POE\\contracts\\POE.sol",
  "compiler": {
    "name": "solc",
    "version": "0.8.0+commit.c7dfd78e.Emscripten.clang"
  },
  "schemaVersion": "3.4.4",
  "updatedAt": "2022-04-10T07:19:09.469Z",
  "devdoc": {
    "kind": "dev",
    "methods": {},
    "version": 1
  },
  "userdoc": {
    "kind": "user",
    "methods": {},
    "version": 1
  }
}