{
  "contractName": "ProofOfExistencal2",
  "abi": [
    {
      "inputs": [
        {
          "internalType": "string",
          "name": "doc",
          "type": "string"
        }
      ],
      "name": "notarize",
      "outputs": [],
      "stateMutability": "nonpayable",
      "type": "function"
    },
    {
      "inputs": [
        {
          "internalType": "string",
          "name": "doc",
          "type": "string"
        }
      ],
      "name": "checkProof",
      "outputs": [
        {
          "internalType": "bool",
          "name": "",
          "type": "bool"
        }
      ],
      "stateMutability": "view",
      "type": "function",
      "constant": true
    }
  ],
  "bytecode": "0x608060405234801561001057600080fd5b50610468806100206000396000f3fe608060405234801561001057600080fd5b50600436106100365760003560e01c80637183616c1461003b578063da7d6b4a14610057575b600080fd5b6100556004803603810190610050919061020c565b610087565b005b610071600480360381019061006c919061020c565b6100bd565b60405161007e91906102ec565b60405180910390f35b6001600080610095846100ee565b815260200190815260200160002060006101000a81548160ff02191690831515021790555050565b60008060006100cb846100ee565b815260200190815260200160002060009054906101000a900460ff169050919050565b600060028260405160200161010391906102d5565b60405160208183030381529060405260405161011f91906102be565b602060405180830381855afa15801561013c573d6000803e3d6000fd5b5050506040513d601f19601f8201168201806040525081019061015f91906101e3565b9050919050565b600061017961017484610338565b610307565b90508281526020810184848401111561019157600080fd5b61019c8482856103aa565b509392505050565b6000815190506101b38161041b565b92915050565b600082601f8301126101ca57600080fd5b81356101da848260208601610166565b91505092915050565b6000602082840312156101f557600080fd5b6000610203848285016101a4565b91505092915050565b60006020828403121561021e57600080fd5b600082013567ffffffffffffffff81111561023857600080fd5b610244848285016101b9565b91505092915050565b61025681610394565b82525050565b600061026782610368565b610271818561037e565b93506102818185602086016103b9565b80840191505092915050565b600061029882610373565b6102a28185610389565b93506102b28185602086016103b9565b80840191505092915050565b60006102ca828461025c565b915081905092915050565b60006102e1828461028d565b915081905092915050565b6000602082019050610301600083018461024d565b92915050565b6000604051905081810181811067ffffffffffffffff8211171561032e5761032d6103ec565b5b8060405250919050565b600067ffffffffffffffff821115610353576103526103ec565b5b601f19601f8301169050602081019050919050565b600081519050919050565b600081519050919050565b600081905092915050565b600081905092915050565b60008115159050919050565b6000819050919050565b82818337600083830152505050565b60005b838110156103d75780820151818401526020810190506103bc565b838111156103e6576000848401525b50505050565b7f4e487b7100000000000000000000000000000000000000000000000000000000600052604160045260246000fd5b610424816103a0565b811461042f57600080fd5b5056fea26469706673582212204752099f63a8f3fc4aeb8c5f6a1382259aa47b525ec0026439ecc1fa9aa3c16b64736f6c63430008000033",
  "immutableReferences": {},
  "source": "// SPDX-License-Identifier: MIT\r\npragma solidity ^0.8.0;\r\n\r\ncontract ProofOfExistencal2 {\r\n    mapping(bytes32 => bool) private proofs;\r\n\r\n    function notarize(string memory doc) public {\r\n        proofs[proofFor(doc)] = true;\r\n    }\r\n\r\n    function proofFor(string memory doc) internal pure returns (bytes32) {\r\n        return sha256(abi.encodePacked(doc));\r\n    }\r\n\r\n    function checkProof(string memory doc) public view returns (bool) {\r\n        return proofs[proofFor(doc)];\r\n    }\r\n}\r\n",
  "sourcePath": "D:\\New folder\\POE\\contracts\\POE_v2.sol",
  "compiler": {
    "name": "solc",
    "version": "0.8.0+commit.c7dfd78e.Emscripten.clang"
  },
  "schemaVersion": "3.4.4",
  "updatedAt": "2022-04-10T07:19:20.911Z",
  "networkType": "ethereum",
  "devdoc": {
    "kind": "dev",
    "methods": {},
    "version": 1
  },
  "userdoc": {
    "kind": "user",
    "methods": {},
    "version": 1
  }
}